{"abi":[{"type":"function","name":"POSEIDON_ADDR","inputs":[],"outputs":[{"name":"","type":"address","internalType":"address"}],"stateMutability":"view"},{"type":"function","name":"hash","inputs":[{"name":"data","type":"bytes","internalType":"bytes"}],"outputs":[{"name":"","type":"bytes","internalType":"bytes"}],"stateMutability":"view"}],"bytecode":{"object":"0x6080604052348015600f57600080fd5b506102768061001f6000396000f3fe608060405234801561001057600080fd5b50600436106100365760003560e01c806354222d961461003b578063aa1e84de14610062575b600080fd5b61004562010f2c81565b6040516001600160a01b0390911681526020015b60405180910390f35b61007561007036600461011c565b610082565b60405161005991906101f1565b606060008062010f2c6001600160a01b0316846040516100a29190610224565b600060405180830381855afa9150503d80600081146100dd576040519150601f19603f3d011682016040523d82523d6000602084013e6100e2565b606091505b5091509150816100f157600080fd5b80516020146100ff57600080fd5b9392505050565b634e487b7160e01b600052604160045260246000fd5b60006020828403121561012e57600080fd5b813567ffffffffffffffff8082111561014657600080fd5b818401915084601f83011261015a57600080fd5b81358181111561016c5761016c610106565b604051601f8201601f19908116603f0116810190838211818310171561019457610194610106565b816040528281528760208487010111156101ad57600080fd5b826020860160208301376000928101602001929092525095945050505050565b60005b838110156101e85781810151838201526020016101d0565b50506000910152565b60208152600082518060208401526102108160408501602087016101cd565b601f01601f19169190910160400192915050565b600082516102368184602087016101cd565b919091019291505056fea26469706673582212204930455802113f994a5ceae6041e8ef7ea165b245e23a51313875faec8e40b5964736f6c63430008190033","linkReferences":{}},"methodIdentifiers":{"POSEIDON_ADDR()":"54222d96","hash(bytes)":"aa1e84de"},"id":0}